{
  "contractName": "TrueLocker",
  "abi": [
    {
      "inputs": [],
      "stateMutability": "nonpayable",
      "type": "constructor"
    },
    {
      "anonymous": false,
      "inputs": [
        {
          "indexed": true,
          "internalType": "address",
          "name": "previousOwner",
          "type": "address"
        },
        {
          "indexed": true,
          "internalType": "address",
          "name": "newOwner",
          "type": "address"
        }
      ],
      "name": "OwnershipTransferred",
      "type": "event"
    },
    {
      "anonymous": false,
      "inputs": [
        {
          "indexed": true,
          "internalType": "address",
          "name": "tokenAddress",
          "type": "address"
        },
        {
          "indexed": true,
          "internalType": "address",
          "name": "sender",
          "type": "address"
        },
        {
          "indexed": false,
          "internalType": "uint256",
          "name": "amount",
          "type": "uint256"
        },
        {
          "indexed": false,
          "internalType": "uint256",
          "name": "unlockTime",
          "type": "uint256"
        },
        {
          "indexed": false,
          "internalType": "uint256",
          "name": "depositId",
          "type": "uint256"
        }
      ],
      "name": "TokensLocked",
      "type": "event"
    },
    {
      "anonymous": false,
      "inputs": [
        {
          "indexed": true,
          "internalType": "address",
          "name": "tokenAddress",
          "type": "address"
        },
        {
          "indexed": true,
          "internalType": "address",
          "name": "receiver",
          "type": "address"
        },
        {
          "indexed": false,
          "internalType": "uint256",
          "name": "amount",
          "type": "uint256"
        }
      ],
      "name": "TokensWithdrawn",
      "type": "event"
    },
    {
      "inputs": [
        {
          "internalType": "uint256",
          "name": "",
          "type": "uint256"
        }
      ],
      "name": "allDepositIds",
      "outputs": [
        {
          "internalType": "uint256",
          "name": "",
          "type": "uint256"
        }
      ],
      "stateMutability": "view",
      "type": "function",
      "constant": true
    },
    {
      "inputs": [],
      "name": "bnbFee",
      "outputs": [
        {
          "internalType": "uint256",
          "name": "",
          "type": "uint256"
        }
      ],
      "stateMutability": "view",
      "type": "function",
      "constant": true
    },
    {
      "inputs": [],
      "name": "depositId",
      "outputs": [
        {
          "internalType": "uint256",
          "name": "",
          "type": "uint256"
        }
      ],
      "stateMutability": "view",
      "type": "function",
      "constant": true
    },
    {
      "inputs": [
        {
          "internalType": "address",
          "name": "",
          "type": "address"
        },
        {
          "internalType": "uint256",
          "name": "",
          "type": "uint256"
        }
      ],
      "name": "depositsByTokenAddress",
      "outputs": [
        {
          "internalType": "uint256",
          "name": "",
          "type": "uint256"
        }
      ],
      "stateMutability": "view",
      "type": "function",
      "constant": true
    },
    {
      "inputs": [
        {
          "internalType": "address",
          "name": "",
          "type": "address"
        },
        {
          "internalType": "uint256",
          "name": "",
          "type": "uint256"
        }
      ],
      "name": "depositsByWithdrawalAddress",
      "outputs": [
        {
          "internalType": "uint256",
          "name": "",
          "type": "uint256"
        }
      ],
      "stateMutability": "view",
      "type": "function",
      "constant": true
    },
    {
      "inputs": [
        {
          "internalType": "uint256",
          "name": "",
          "type": "uint256"
        }
      ],
      "name": "lockedToken",
      "outputs": [
        {
          "internalType": "address",
          "name": "tokenAddress",
          "type": "address"
        },
        {
          "internalType": "address",
          "name": "withdrawalAddress",
          "type": "address"
        },
        {
          "internalType": "uint256",
          "name": "tokenAmount",
          "type": "uint256"
        },
        {
          "internalType": "uint256",
          "name": "unlockTime",
          "type": "uint256"
        },
        {
          "internalType": "bool",
          "name": "withdrawn",
          "type": "bool"
        }
      ],
      "stateMutability": "view",
      "type": "function",
      "constant": true
    },
    {
      "inputs": [],
      "name": "lpFeePercent",
      "outputs": [
        {
          "internalType": "uint256",
          "name": "",
          "type": "uint256"
        }
      ],
      "stateMutability": "view",
      "type": "function",
      "constant": true
    },
    {
      "inputs": [],
      "name": "owner",
      "outputs": [
        {
          "internalType": "address",
          "name": "",
          "type": "address"
        }
      ],
      "stateMutability": "view",
      "type": "function",
      "constant": true
    },
    {
      "inputs": [],
      "name": "remainingBnbFees",
      "outputs": [
        {
          "internalType": "uint256",
          "name": "",
          "type": "uint256"
        }
      ],
      "stateMutability": "view",
      "type": "function",
      "constant": true
    },
    {
      "inputs": [],
      "name": "renounceOwnership",
      "outputs": [],
      "stateMutability": "nonpayable",
      "type": "function"
    },
    {
      "inputs": [
        {
          "internalType": "address",
          "name": "",
          "type": "address"
        }
      ],
      "name": "tokensFees",
      "outputs": [
        {
          "internalType": "uint256",
          "name": "",
          "type": "uint256"
        }
      ],
      "stateMutability": "view",
      "type": "function",
      "constant": true
    },
    {
      "inputs": [],
      "name": "totalBnbFees",
      "outputs": [
        {
          "internalType": "uint256",
          "name": "",
          "type": "uint256"
        }
      ],
      "stateMutability": "view",
      "type": "function",
      "constant": true
    },
    {
      "inputs": [
        {
          "internalType": "address",
          "name": "newOwner",
          "type": "address"
        }
      ],
      "name": "transferOwnership",
      "outputs": [],
      "stateMutability": "nonpayable",
      "type": "function"
    },
    {
      "inputs": [
        {
          "internalType": "address",
          "name": "",
          "type": "address"
        },
        {
          "internalType": "address",
          "name": "",
          "type": "address"
        }
      ],
      "name": "walletTokenBalance",
      "outputs": [
        {
          "internalType": "uint256",
          "name": "",
          "type": "uint256"
        }
      ],
      "stateMutability": "view",
      "type": "function",
      "constant": true
    },
    {
      "inputs": [
        {
          "internalType": "address",
          "name": "_tokenAddress",
          "type": "address"
        },
        {
          "internalType": "uint256",
          "name": "_amount",
          "type": "uint256"
        },
        {
          "internalType": "uint256",
          "name": "_unlockTime",
          "type": "uint256"
        },
        {
          "internalType": "bool",
          "name": "_feeInBnb",
          "type": "bool"
        }
      ],
      "name": "lockTokens",
      "outputs": [
        {
          "internalType": "uint256",
          "name": "_id",
          "type": "uint256"
        }
      ],
      "stateMutability": "payable",
      "type": "function",
      "payable": true
    },
    {
      "inputs": [
        {
          "internalType": "uint256",
          "name": "_id",
          "type": "uint256"
        }
      ],
      "name": "withdrawTokens",
      "outputs": [],
      "stateMutability": "nonpayable",
      "type": "function"
    },
    {
      "inputs": [
        {
          "internalType": "address",
          "name": "_tokenAddress",
          "type": "address"
        }
      ],
      "name": "getTotalTokenBalance",
      "outputs": [
        {
          "internalType": "uint256",
          "name": "",
          "type": "uint256"
        }
      ],
      "stateMutability": "view",
      "type": "function",
      "constant": true
    },
    {
      "inputs": [
        {
          "internalType": "address",
          "name": "_tokenAddress",
          "type": "address"
        },
        {
          "internalType": "address",
          "name": "_walletAddress",
          "type": "address"
        }
      ],
      "name": "getTokenBalanceByAddress",
      "outputs": [
        {
          "internalType": "uint256",
          "name": "",
          "type": "uint256"
        }
      ],
      "stateMutability": "view",
      "type": "function",
      "constant": true
    },
    {
      "inputs": [],
      "name": "getAllDepositIds",
      "outputs": [
        {
          "internalType": "uint256[]",
          "name": "",
          "type": "uint256[]"
        }
      ],
      "stateMutability": "view",
      "type": "function",
      "constant": true
    },
    {
      "inputs": [
        {
          "internalType": "uint256",
          "name": "_id",
          "type": "uint256"
        }
      ],
      "name": "getDepositDetails",
      "outputs": [
        {
          "internalType": "address",
          "name": "",
          "type": "address"
        },
        {
          "internalType": "address",
          "name": "",
          "type": "address"
        },
        {
          "internalType": "uint256",
          "name": "",
          "type": "uint256"
        },
        {
          "internalType": "uint256",
          "name": "",
          "type": "uint256"
        },
        {
          "internalType": "bool",
          "name": "",
          "type": "bool"
        }
      ],
      "stateMutability": "view",
      "type": "function",
      "constant": true
    },
    {
      "inputs": [
        {
          "internalType": "address",
          "name": "_withdrawalAddress",
          "type": "address"
        }
      ],
      "name": "getDepositsByWithdrawalAddress",
      "outputs": [
        {
          "internalType": "uint256[]",
          "name": "",
          "type": "uint256[]"
        }
      ],
      "stateMutability": "view",
      "type": "function",
      "constant": true
    },
    {
      "inputs": [
        {
          "internalType": "address",
          "name": "_tokenAddress",
          "type": "address"
        }
      ],
      "name": "getDepositsByTokenAddress",
      "outputs": [
        {
          "internalType": "uint256[]",
          "name": "",
          "type": "uint256[]"
        }
      ],
      "stateMutability": "view",
      "type": "function",
      "constant": true
    },
    {
      "inputs": [
        {
          "internalType": "uint256",
          "name": "fee",
          "type": "uint256"
        }
      ],
      "name": "setBnbFee",
      "outputs": [],
      "stateMutability": "nonpayable",
      "type": "function"
    },
    {
      "inputs": [
        {
          "internalType": "uint256",
          "name": "percent",
          "type": "uint256"
        }
      ],
      "name": "setLpFee",
      "outputs": [],
      "stateMutability": "nonpayable",
      "type": "function"
    },
    {
      "inputs": [
        {
          "internalType": "address payable",
          "name": "withdrawalAddress",
          "type": "address"
        }
      ],
      "name": "withdrawFees",
      "outputs": [],
      "stateMutability": "nonpayable",
      "type": "function"
    }
  ],
  "bytecode": "0x6080604052670de0b6b3a764000060025560056003556000600455600060055534801561002b57600080fd5b50600061003c6100e660201b60201c565b9050806000806101000a81548173ffffffffffffffffffffffffffffffffffffffff021916908373ffffffffffffffffffffffffffffffffffffffff1602179055508073ffffffffffffffffffffffffffffffffffffffff16600073ffffffffffffffffffffffffffffffffffffffff167f8be0079c531659141344cd1fd0a4f28419497f9722a3daafe3b4186f6b6457e060405160405180910390a350600180819055506100ee565b600033905090565b61301580620000fe6000396000f3fe6080604052600436106101665760003560e01c8063890db72f116100d1578063b9e7df1c1161008a578063d4dbe3ef11610064578063d4dbe3ef14610931578063e6a478b31461095c578063efc17415146109d4578063f2fde38b146109ff57610166565b8063b9e7df1c146107c4578063bb941cff14610849578063c9028aff146108e257610166565b8063890db72f146105f45780638a47446c1461068d5780638da5cb5b146106c85780639852099c14610709578063adad19bd14610734578063ae3ff3dd1461079957610166565b80633fd97b9b116101235780633fd97b9b146103b2578063530680d8146104215780636ba0392414610490578063715018a6146104fc57806384dfbfe21461051357806386f65a221461054e57610166565b80630bd59ad31461016b5780630cff87f114610211578063164e68de14610276578063213596b8146102c7578063315a095d146102f2578063347c80ba1461032d575b600080fd5b34801561017757600080fd5b506101ba6004803603602081101561018e57600080fd5b81019080803573ffffffffffffffffffffffffffffffffffffffff169060200190929190505050610a50565b6040518080602001828103825283818151815260200191508051906020019060200280838360005b838110156101fd5780820151818401526020810190506101e2565b505050509050019250505060405180910390f35b34801561021d57600080fd5b506102606004803603602081101561023457600080fd5b81019080803573ffffffffffffffffffffffffffffffffffffffff169060200190929190505050610ae7565b6040518082815260200191505060405180910390f35b34801561028257600080fd5b506102c56004803603602081101561029957600080fd5b81019080803573ffffffffffffffffffffffffffffffffffffffff169060200190929190505050610aff565b005b3480156102d357600080fd5b506102dc610e50565b6040518082815260200191505060405180910390f35b3480156102fe57600080fd5b5061032b6004803603602081101561031557600080fd5b8101908080359060200190929190505050610e56565b005b34801561033957600080fd5b5061039c6004803603604081101561035057600080fd5b81019080803573ffffffffffffffffffffffffffffffffffffffff169060200190929190803573ffffffffffffffffffffffffffffffffffffffff169060200190929190505050611854565b6040518082815260200191505060405180910390f35b3480156103be57600080fd5b5061040b600480360360408110156103d557600080fd5b81019080803573ffffffffffffffffffffffffffffffffffffffff169060200190929190803590602001909291905050506118db565b6040518082815260200191505060405180910390f35b34801561042d57600080fd5b5061047a6004803603604081101561044457600080fd5b81019080803573ffffffffffffffffffffffffffffffffffffffff1690602001909291908035906020019092919050505061190c565b6040518082815260200191505060405180910390f35b34801561049c57600080fd5b506104a561193d565b6040518080602001828103825283818151815260200191508051906020019060200280838360005b838110156104e85780820151818401526020810190506104cd565b505050509050019250505060405180910390f35b34801561050857600080fd5b50610511611995565b005b34801561051f57600080fd5b5061054c6004803603602081101561053657600080fd5b8101908080359060200190929190505050611b02565b005b34801561055a57600080fd5b5061059d6004803603602081101561057157600080fd5b81019080803573ffffffffffffffffffffffffffffffffffffffff169060200190929190505050611c31565b6040518080602001828103825283818151815260200191508051906020019060200280838360005b838110156105e05780820151818401526020810190506105c5565b505050509050019250505060405180910390f35b34801561060057600080fd5b5061062d6004803603602081101561061757600080fd5b8101908080359060200190929190505050611cc8565b604051808673ffffffffffffffffffffffffffffffffffffffff1681526020018573ffffffffffffffffffffffffffffffffffffffff16815260200184815260200183815260200182151581526020019550505050505060405180910390f35b34801561069957600080fd5b506106c6600480360360208110156106b057600080fd5b8101908080359060200190929190505050611da3565b005b3480156106d457600080fd5b506106dd611ed2565b604051808273ffffffffffffffffffffffffffffffffffffffff16815260200191505060405180910390f35b34801561071557600080fd5b5061071e611efb565b6040518082815260200191505060405180910390f35b34801561074057600080fd5b506107836004803603602081101561075757600080fd5b81019080803573ffffffffffffffffffffffffffffffffffffffff169060200190929190505050611f01565b6040518082815260200191505060405180910390f35b3480156107a557600080fd5b506107ae611fac565b6040518082815260200191505060405180910390f35b3480156107d057600080fd5b50610833600480360360408110156107e757600080fd5b81019080803573ffffffffffffffffffffffffffffffffffffffff169060200190929190803573ffffffffffffffffffffffffffffffffffffffff169060200190929190505050611fb2565b6040518082815260200191505060405180910390f35b34801561085557600080fd5b506108826004803603602081101561086c57600080fd5b8101908080359060200190929190505050611fd7565b604051808673ffffffffffffffffffffffffffffffffffffffff1681526020018573ffffffffffffffffffffffffffffffffffffffff16815260200184815260200183815260200182151581526020019550505050505060405180910390f35b3480156108ee57600080fd5b5061091b6004803603602081101561090557600080fd5b810190808035906020019092919050505061205a565b6040518082815260200191505060405180910390f35b34801561093d57600080fd5b5061094661207e565b6040518082815260200191505060405180910390f35b6109be6004803603608081101561097257600080fd5b81019080803573ffffffffffffffffffffffffffffffffffffffff1690602001909291908035906020019092919080359060200190929190803515159060200190929190505050612084565b6040518082815260200191505060405180910390f35b3480156109e057600080fd5b506109e96129e2565b6040518082815260200191505060405180910390f35b348015610a0b57600080fd5b50610a4e60048036036020811015610a2257600080fd5b81019080803573ffffffffffffffffffffffffffffffffffffffff1690602001909291905050506129e8565b005b6060600b60008373ffffffffffffffffffffffffffffffffffffffff1673ffffffffffffffffffffffffffffffffffffffff168152602001908152602001600020805480602002602001604051908101604052809291908181526020018280548015610adb57602002820191906000526020600020905b815481526020019060010190808311610ac7575b50505050509050919050565b60076020528060005260406000206000915090505481565b610b07612bda565b73ffffffffffffffffffffffffffffffffffffffff16610b25611ed2565b73ffffffffffffffffffffffffffffffffffffffff1614610bae576040517f08c379a00000000000000000000000000000000000000000000000000000000081526004018080602001828103825260208152602001807f4f776e61626c653a2063616c6c6572206973206e6f7420746865206f776e657281525060200191505060405180910390fd5b60006005541115610c0b578073ffffffffffffffffffffffffffffffffffffffff166108fc6005549081150290604051600060405180830381858888f19350505050158015610c01573d6000803e3d6000fd5b5060006005819055505b6000600190505b6006805490508111610dee5760006006826006805490500381548110610c3457fe5b9060005260206000200160009054906101000a900473ffffffffffffffffffffffffffffffffffffffff1690506000600760008373ffffffffffffffffffffffffffffffffffffffff1673ffffffffffffffffffffffffffffffffffffffff1681526020019081526020016000205490506000811115610d5c578173ffffffffffffffffffffffffffffffffffffffff1663a9059cbb85836040518363ffffffff1660e01b8152600401808373ffffffffffffffffffffffffffffffffffffffff16815260200182815260200192505050602060405180830381600087803b158015610d1f57600080fd5b505af1158015610d33573d6000803e3d6000fd5b505050506040513d6020811015610d4957600080fd5b8101908080519060200190929190505050505b600760008373ffffffffffffffffffffffffffffffffffffffff1673ffffffffffffffffffffffffffffffffffffffff168152602001908152602001600020600090556006805480610daa57fe5b6001900381819060005260206000200160006101000a81549073ffffffffffffffffffffffffffffffffffffffff0219169055905550508080600101915050610c12565b50600067ffffffffffffffff81118015610e0757600080fd5b50604051908082528060200260200182016040528015610e365781602001602082028036833780820191505090505b5060069080519060200190610e4c929190612dfc565b5050565b60055481565b600a600082815260200190815260200160002060030154421015610ee2576040517f08c379a00000000000000000000000000000000000000000000000000000000081526004018080602001828103825260118152602001807f546f6b656e7320617265206c6f636b656400000000000000000000000000000081525060200191505060405180910390fd5b600a600082815260200190815260200160002060040160009054906101000a900460ff1615610f79576040517f08c379a00000000000000000000000000000000000000000000000000000000081526004018080602001828103825260188152602001807f546f6b656e7320616c72656164792077697468647261776e000000000000000081525060200191505060405180910390fd5b600a600082815260200190815260200160002060010160009054906101000a900473ffffffffffffffffffffffffffffffffffffffff1673ffffffffffffffffffffffffffffffffffffffff163373ffffffffffffffffffffffffffffffffffffffff1614611033576040517f08c379a000000000000000000000000000000000000000000000000000000000815260040180806020018281038252602e815260200180612f5c602e913960400191505060405180910390fd5b6000600a600083815260200190815260200160002060000160009054906101000a900473ffffffffffffffffffffffffffffffffffffffff1690506000600a600084815260200190815260200160002060010160009054906101000a900473ffffffffffffffffffffffffffffffffffffffff1690506000600a60008581526020019081526020016000206002015490508273ffffffffffffffffffffffffffffffffffffffff1663a9059cbb83836040518363ffffffff1660e01b8152600401808373ffffffffffffffffffffffffffffffffffffffff16815260200182815260200192505050602060405180830381600087803b15801561113557600080fd5b505af1158015611149573d6000803e3d6000fd5b505050506040513d602081101561115f57600080fd5b81019080805190602001909291905050506111e2576040517f08c379a00000000000000000000000000000000000000000000000000000000081526004018080602001828103825260198152602001807f4661696c656420746f207472616e7366657220746f6b656e730000000000000081525060200191505060405180910390fd5b6001600a600086815260200190815260200160002060040160006101000a81548160ff0219169083151502179055506000600d60008573ffffffffffffffffffffffffffffffffffffffff1673ffffffffffffffffffffffffffffffffffffffff16815260200190815260200160002060003373ffffffffffffffffffffffffffffffffffffffff1673ffffffffffffffffffffffffffffffffffffffff1681526020019081526020016000205490506112a58282612be290919063ffffffff16565b600d60008673ffffffffffffffffffffffffffffffffffffffff1673ffffffffffffffffffffffffffffffffffffffff16815260200190815260200160002060003373ffffffffffffffffffffffffffffffffffffffff1673ffffffffffffffffffffffffffffffffffffffff168152602001908152602001600020819055506000806000600b60008773ffffffffffffffffffffffffffffffffffffffff1673ffffffffffffffffffffffffffffffffffffffff16815260200190815260200160002080549050905060006001820367ffffffffffffffff8111801561138b57600080fd5b506040519080825280602002602001820160405280156113ba5781602001602082028036833780820191505090505b509050600092505b818310156115315788600b60008973ffffffffffffffffffffffffffffffffffffffff1673ffffffffffffffffffffffffffffffffffffffff168152602001908152602001600020848154811061141557fe5b906000526020600020015414156114b7578293505b600182038410156114b257600b60008873ffffffffffffffffffffffffffffffffffffffff1673ffffffffffffffffffffffffffffffffffffffff168152602001908152602001600020600185018154811061148257fe5b906000526020600020015481858151811061149957fe5b602002602001018181525050838060010194505061142a565b611531565b600b60008873ffffffffffffffffffffffffffffffffffffffff1673ffffffffffffffffffffffffffffffffffffffff168152602001908152602001600020838154811061150157fe5b906000526020600020015481848151811061151857fe5b60200260200101818152505082806001019350506113c2565b80600b60008973ffffffffffffffffffffffffffffffffffffffff1673ffffffffffffffffffffffffffffffffffffffff1681526020019081526020016000209080519060200190611584929190612e86565b506000600c60008a73ffffffffffffffffffffffffffffffffffffffff1673ffffffffffffffffffffffffffffffffffffffff16815260200190815260200160002080549050905060006001820367ffffffffffffffff811180156115e857600080fd5b506040519080825280602002602001820160405280156116175781602001602082028036833780820191505090505b509050600094505b8185101561178e578a600c60008c73ffffffffffffffffffffffffffffffffffffffff1673ffffffffffffffffffffffffffffffffffffffff168152602001908152602001600020868154811061167257fe5b90600052602060002001541415611714578495505b6001820386101561170f57600c60008b73ffffffffffffffffffffffffffffffffffffffff1673ffffffffffffffffffffffffffffffffffffffff16815260200190815260200160002060018701815481106116df57fe5b90600052602060002001548187815181106116f657fe5b6020026020010181815250508580600101965050611687565b61178e565b600c60008b73ffffffffffffffffffffffffffffffffffffffff1673ffffffffffffffffffffffffffffffffffffffff168152602001908152602001600020858154811061175e57fe5b906000526020600020015481868151811061177557fe5b602002602001018181525050848060010195505061161f565b80600c60008c73ffffffffffffffffffffffffffffffffffffffff1673ffffffffffffffffffffffffffffffffffffffff16815260200190815260200160002090805190602001906117e1929190612e86565b508873ffffffffffffffffffffffffffffffffffffffff168a73ffffffffffffffffffffffffffffffffffffffff167f6337ed398c0e8467698c581374fdce4db14922df487b5a39483079f5f59b60a48a6040518082815260200191505060405180910390a35050505050505050505050565b6000600d60008473ffffffffffffffffffffffffffffffffffffffff1673ffffffffffffffffffffffffffffffffffffffff16815260200190815260200160002060008373ffffffffffffffffffffffffffffffffffffffff1673ffffffffffffffffffffffffffffffffffffffff16815260200190815260200160002054905092915050565b600c60205281600052604060002081815481106118f757600080fd5b90600052602060002001600091509150505481565b600b602052816000526040600020818154811061192857600080fd5b90600052602060002001600091509150505481565b6060600980548060200260200160405190810160405280929190818152602001828054801561198b57602002820191906000526020600020905b815481526020019060010190808311611977575b5050505050905090565b61199d612bda565b73ffffffffffffffffffffffffffffffffffffffff166119bb611ed2565b73ffffffffffffffffffffffffffffffffffffffff1614611a44576040517f08c379a00000000000000000000000000000000000000000000000000000000081526004018080602001828103825260208152602001807f4f776e61626c653a2063616c6c6572206973206e6f7420746865206f776e657281525060200191505060405180910390fd5b600073ffffffffffffffffffffffffffffffffffffffff1660008054906101000a900473ffffffffffffffffffffffffffffffffffffffff1673ffffffffffffffffffffffffffffffffffffffff167f8be0079c531659141344cd1fd0a4f28419497f9722a3daafe3b4186f6b6457e060405160405180910390a360008060006101000a81548173ffffffffffffffffffffffffffffffffffffffff021916908373ffffffffffffffffffffffffffffffffffffffff160217905550565b611b0a612bda565b73ffffffffffffffffffffffffffffffffffffffff16611b28611ed2565b73ffffffffffffffffffffffffffffffffffffffff1614611bb1576040517f08c379a00000000000000000000000000000000000000000000000000000000081526004018080602001828103825260208152602001807f4f776e61626c653a2063616c6c6572206973206e6f7420746865206f776e657281525060200191505060405180910390fd5b60008111611c27576040517f08c379a00000000000000000000000000000000000000000000000000000000081526004018080602001828103825260148152602001807f50657263656e7420697320746f6f20736d616c6c00000000000000000000000081525060200191505060405180910390fd5b8060038190555050565b6060600c60008373ffffffffffffffffffffffffffffffffffffffff1673ffffffffffffffffffffffffffffffffffffffff168152602001908152602001600020805480602002602001604051908101604052809291908181526020018280548015611cbc57602002820191906000526020600020905b815481526020019060010190808311611ca8575b50505050509050919050565b6000806000806000600a600087815260200190815260200160002060000160009054906101000a900473ffffffffffffffffffffffffffffffffffffffff16600a600088815260200190815260200160002060010160009054906101000a900473ffffffffffffffffffffffffffffffffffffffff16600a600089815260200190815260200160002060020154600a60008a815260200190815260200160002060030154600a60008b815260200190815260200160002060040160009054906101000a900460ff169450945094509450945091939590929450565b611dab612bda565b73ffffffffffffffffffffffffffffffffffffffff16611dc9611ed2565b73ffffffffffffffffffffffffffffffffffffffff1614611e52576040517f08c379a00000000000000000000000000000000000000000000000000000000081526004018080602001828103825260208152602001807f4f776e61626c653a2063616c6c6572206973206e6f7420746865206f776e657281525060200191505060405180910390fd5b60008111611ec8576040517f08c379a00000000000000000000000000000000000000000000000000000000081526004018080602001828103825260108152602001807f46656520697320746f6f20736d616c6c0000000000000000000000000000000081525060200191505060405180910390fd5b8060028190555050565b60008060009054906101000a900473ffffffffffffffffffffffffffffffffffffffff16905090565b60085481565b60008173ffffffffffffffffffffffffffffffffffffffff166370a08231306040518263ffffffff1660e01b8152600401808273ffffffffffffffffffffffffffffffffffffffff16815260200191505060206040518083038186803b158015611f6a57600080fd5b505afa158015611f7e573d6000803e3d6000fd5b505050506040513d6020811015611f9457600080fd5b81019080805190602001909291905050509050919050565b60045481565b600d602052816000526040600020602052806000526040600020600091509150505481565b600a6020528060005260406000206000915090508060000160009054906101000a900473ffffffffffffffffffffffffffffffffffffffff16908060010160009054906101000a900473ffffffffffffffffffffffffffffffffffffffff16908060020154908060030154908060040160009054906101000a900460ff16905085565b6009818154811061206a57600080fd5b906000526020600020016000915090505481565b60035481565b60008084116120de576040517f08c379a0000000000000000000000000000000000000000000000000000000008152600401808060200182810382526024815260200180612f176024913960400191505060405180910390fd5b6402540be400831061213b576040517f08c379a0000000000000000000000000000000000000000000000000000000008152600401808060200182810382526033815260200180612f8a6033913960400191505060405180910390fd5b4283116121b0576040517f08c379a000000000000000000000000000000000000000000000000000000000815260040180806020018281038252601d8152602001807f556e6c6f636b2074696d65206d75737420626520696e2066757475726500000081525060200191505060405180910390fd5b8115806121be575060025434115b612230576040517f08c379a00000000000000000000000000000000000000000000000000000000081526004018080602001828103825260148152602001807f424e4220666565206e6f742070726f766964656400000000000000000000000081525060200191505060405180910390fd5b8473ffffffffffffffffffffffffffffffffffffffff1663095ea7b330866040518363ffffffff1660e01b8152600401808373ffffffffffffffffffffffffffffffffffffffff16815260200182815260200192505050602060405180830381600087803b1580156122a157600080fd5b505af11580156122b5573d6000803e3d6000fd5b505050506040513d60208110156122cb57600080fd5b810190808051906020019092919050505061234e576040517f08c379a00000000000000000000000000000000000000000000000000000000081526004018080602001828103825260188152602001807f4661696c656420746f20617070726f766520746f6b656e73000000000000000081525060200191505060405180910390fd5b8473ffffffffffffffffffffffffffffffffffffffff166323b872dd3330876040518463ffffffff1660e01b8152600401808473ffffffffffffffffffffffffffffffffffffffff1681526020018373ffffffffffffffffffffffffffffffffffffffff1681526020018281526020019350505050602060405180830381600087803b1580156123dd57600080fd5b505af11580156123f1573d6000803e3d6000fd5b505050506040513d602081101561240757600080fd5b810190808051906020019092919050505061246d576040517f08c379a0000000000000000000000000000000000000000000000000000000008152600401808060200182810382526023815260200180612fbd6023913960400191505060405180910390fd5b600084905082156124b35761248d34600454612c6590919063ffffffff16565b6004819055506124a834600554612c6590919063ffffffff16565b600581905550612638565b60006124de6103e86124d060035485612ced90919063ffffffff16565b612d7390919063ffffffff16565b90506124f38183612be290919063ffffffff16565b91506000600760008973ffffffffffffffffffffffffffffffffffffffff1673ffffffffffffffffffffffffffffffffffffffff1681526020019081526020016000205414156125a1576006879080600181540180825580915050600190039060005260206000200160009091909190916101000a81548173ffffffffffffffffffffffffffffffffffffffff021916908373ffffffffffffffffffffffffffffffffffffffff1602179055505b6125f381600760008a73ffffffffffffffffffffffffffffffffffffffff1673ffffffffffffffffffffffffffffffffffffffff16815260200190815260200160002054612c6590919063ffffffff16565b600760008973ffffffffffffffffffffffffffffffffffffffff1673ffffffffffffffffffffffffffffffffffffffff16815260200190815260200160002081905550505b6126c785600d60008973ffffffffffffffffffffffffffffffffffffffff1673ffffffffffffffffffffffffffffffffffffffff16815260200190815260200160002060003373ffffffffffffffffffffffffffffffffffffffff1673ffffffffffffffffffffffffffffffffffffffff16815260200190815260200160002054612c6590919063ffffffff16565b600d60008873ffffffffffffffffffffffffffffffffffffffff1673ffffffffffffffffffffffffffffffffffffffff16815260200190815260200160002060003373ffffffffffffffffffffffffffffffffffffffff1673ffffffffffffffffffffffffffffffffffffffff168152602001908152602001600020819055506000339050600860008154600101919050819055925086600a600085815260200190815260200160002060000160006101000a81548173ffffffffffffffffffffffffffffffffffffffff021916908373ffffffffffffffffffffffffffffffffffffffff16021790555080600a600085815260200190815260200160002060010160006101000a81548173ffffffffffffffffffffffffffffffffffffffff021916908373ffffffffffffffffffffffffffffffffffffffff16021790555081600a60008581526020019081526020016000206002018190555084600a6000858152602001908152602001600020600301819055506000600a600085815260200190815260200160002060040160006101000a81548160ff0219169083151502179055506009839080600181540180825580915050600190039060005260206000200160009091909190915055600b60008273ffffffffffffffffffffffffffffffffffffffff1673ffffffffffffffffffffffffffffffffffffffff168152602001908152602001600020839080600181540180825580915050600190039060005260206000200160009091909190915055600c60008873ffffffffffffffffffffffffffffffffffffffff1673ffffffffffffffffffffffffffffffffffffffff1681526020019081526020016000208390806001815401808255809150506001900390600052602060002001600090919091909150553373ffffffffffffffffffffffffffffffffffffffff168773ffffffffffffffffffffffffffffffffffffffff167fa6782d3322abbfbe850e6d5c5c78e8e1df603ea07608bb9a62dd83f40d4feccc888860085460405180848152602001838152602001828152602001935050505060405180910390a35050949350505050565b60025481565b6129f0612bda565b73ffffffffffffffffffffffffffffffffffffffff16612a0e611ed2565b73ffffffffffffffffffffffffffffffffffffffff1614612a97576040517f08c379a00000000000000000000000000000000000000000000000000000000081526004018080602001828103825260208152602001807f4f776e61626c653a2063616c6c6572206973206e6f7420746865206f776e657281525060200191505060405180910390fd5b600073ffffffffffffffffffffffffffffffffffffffff168173ffffffffffffffffffffffffffffffffffffffff161415612b1d576040517f08c379a0000000000000000000000000000000000000000000000000000000008152600401808060200182810382526026815260200180612ef16026913960400191505060405180910390fd5b8073ffffffffffffffffffffffffffffffffffffffff1660008054906101000a900473ffffffffffffffffffffffffffffffffffffffff1673ffffffffffffffffffffffffffffffffffffffff167f8be0079c531659141344cd1fd0a4f28419497f9722a3daafe3b4186f6b6457e060405160405180910390a3806000806101000a81548173ffffffffffffffffffffffffffffffffffffffff021916908373ffffffffffffffffffffffffffffffffffffffff16021790555050565b600033905090565b600082821115612c5a576040517f08c379a000000000000000000000000000000000000000000000000000000000815260040180806020018281038252601e8152602001807f536166654d6174683a207375627472616374696f6e206f766572666c6f77000081525060200191505060405180910390fd5b818303905092915050565b600080828401905083811015612ce3576040517f08c379a000000000000000000000000000000000000000000000000000000000815260040180806020018281038252601b8152602001807f536166654d6174683a206164646974696f6e206f766572666c6f77000000000081525060200191505060405180910390fd5b8091505092915050565b600080831415612d005760009050612d6d565b6000828402905082848281612d1157fe5b0414612d68576040517f08c379a0000000000000000000000000000000000000000000000000000000008152600401808060200182810382526021815260200180612f3b6021913960400191505060405180910390fd5b809150505b92915050565b6000808211612dea576040517f08c379a000000000000000000000000000000000000000000000000000000000815260040180806020018281038252601a8152602001807f536166654d6174683a206469766973696f6e206279207a65726f00000000000081525060200191505060405180910390fd5b818381612df357fe5b04905092915050565b828054828255906000526020600020908101928215612e75579160200282015b82811115612e745782518260006101000a81548173ffffffffffffffffffffffffffffffffffffffff021916908373ffffffffffffffffffffffffffffffffffffffff16021790555091602001919060010190612e1c565b5b509050612e829190612ed3565b5090565b828054828255906000526020600020908101928215612ec2579160200282015b82811115612ec1578251825591602001919060010190612ea6565b5b509050612ecf9190612ed3565b5090565b5b80821115612eec576000816000905550600101612ed4565b509056fe4f776e61626c653a206e6577206f776e657220697320746865207a65726f2061646472657373546f6b656e7320616d6f756e74206d7573742062652067726561746572207468616e2030536166654d6174683a206d756c7469706c69636174696f6e206f766572666c6f7743616e2077697468647261772066726f6d207468652061646472657373207573656420666f72206c6f636b696e67556e69782074696d657374616d70206d75737420626520696e207365636f6e64732c206e6f74206d696c6c697365636f6e64734661696c656420746f207472616e7366657220746f6b656e7320746f206c6f636b6572a264697066735822122070f6cf8da10e752fce4057f38658ac05f177a8f60f1ff3931b2dd346aff8c66764736f6c63430007060033",
  "immutableReferences": {},
  "source": "// SPDX-License-Identifier: UNLICENSED\n\npragma solidity >=0.7.0;\n\nimport \"@openzeppelin/contracts/access/Ownable.sol\";\nimport \"@openzeppelin/contracts/math/SafeMath.sol\";\nimport \"@openzeppelin/contracts/utils/ReentrancyGuard.sol\";\nimport \"./IBEP20.sol\";\n\ncontract TrueLocker is Ownable, ReentrancyGuard {\n    using SafeMath for uint256;\n\n    struct Items {\n        address tokenAddress;\n        address withdrawalAddress;\n        uint256 tokenAmount;\n        uint256 unlockTime;\n        bool withdrawn;\n    }\n\n    uint256 public bnbFee = 1 ether;\n    // base 1000, 0.5% = value * 5 / 1000\n    uint256 public lpFeePercent = 5;\n\n    // for statistic\n    uint256 public totalBnbFees = 0;\n    // withdrawable values\n    uint256 public remainingBnbFees = 0;\n    address[] tokenAddressesWithFees;\n    mapping(address => uint256) public tokensFees;\n\n    uint256 public depositId;\n    uint256[] public allDepositIds;\n\n    mapping(uint256 => Items) public lockedToken;\n\n    mapping(address => uint256[]) public depositsByWithdrawalAddress;\n    mapping(address => uint256[]) public depositsByTokenAddress;\n\n    // Token -> { sender1: locked amount, ... }\n    mapping(address => mapping(address => uint256)) public walletTokenBalance;\n\n    event TokensLocked(address indexed tokenAddress, address indexed sender, uint256 amount, uint256 unlockTime, uint256 depositId);\n    event TokensWithdrawn(address indexed tokenAddress, address indexed receiver, uint256 amount);\n\n    constructor() public {\n    }\n\n    function lockTokens(\n        address _tokenAddress,\n        uint256 _amount,\n        uint256 _unlockTime,\n        bool _feeInBnb\n    ) external payable returns (uint256 _id) {\n        require(_amount > 0, 'Tokens amount must be greater than 0');\n        require(_unlockTime < 10000000000, 'Unix timestamp must be in seconds, not milliseconds');\n        require(_unlockTime > block.timestamp, 'Unlock time must be in future');\n        require(!_feeInBnb || msg.value > bnbFee, 'BNB fee not provided');\n\n        require(IBEP20(_tokenAddress).approve(address(this), _amount), 'Failed to approve tokens');\n        require(IBEP20(_tokenAddress).transferFrom(msg.sender, address(this), _amount), 'Failed to transfer tokens to locker');\n\n        uint256 lockAmount = _amount;\n        if (_feeInBnb) {\n            totalBnbFees = totalBnbFees.add(msg.value);\n            remainingBnbFees = remainingBnbFees.add(msg.value);\n        } else {\n            uint256 fee = lockAmount.mul(lpFeePercent).div(1000);\n            lockAmount = lockAmount.sub(fee);\n\n            if (tokensFees[_tokenAddress] == 0) {\n                tokenAddressesWithFees.push(_tokenAddress);\n            }\n            tokensFees[_tokenAddress] = tokensFees[_tokenAddress].add(fee);\n        }\n\n        walletTokenBalance[_tokenAddress][msg.sender] = walletTokenBalance[_tokenAddress][msg.sender].add(_amount);\n\n        address _withdrawalAddress = msg.sender;\n        _id = ++depositId;\n        lockedToken[_id].tokenAddress = _tokenAddress;\n        lockedToken[_id].withdrawalAddress = _withdrawalAddress;\n        lockedToken[_id].tokenAmount = lockAmount;\n        lockedToken[_id].unlockTime = _unlockTime;\n        lockedToken[_id].withdrawn = false;\n\n        allDepositIds.push(_id);\n        depositsByWithdrawalAddress[_withdrawalAddress].push(_id);\n        depositsByTokenAddress[_tokenAddress].push(_id);\n\n        emit TokensLocked(_tokenAddress, msg.sender, _amount, _unlockTime, depositId);\n    }\n\n    function withdrawTokens(uint256 _id) external {\n        require(block.timestamp >= lockedToken[_id].unlockTime, 'Tokens are locked');\n        require(!lockedToken[_id].withdrawn, 'Tokens already withdrawn');\n        require(msg.sender == lockedToken[_id].withdrawalAddress, 'Can withdraw from the address used for locking');\n\n        address tokenAddress = lockedToken[_id].tokenAddress;\n        address withdrawalAddress = lockedToken[_id].withdrawalAddress;\n        uint256 amount = lockedToken[_id].tokenAmount;\n\n        require(IBEP20(tokenAddress).transfer(withdrawalAddress, amount), 'Failed to transfer tokens');\n\n        lockedToken[_id].withdrawn = true;\n        uint256 previousBalance = walletTokenBalance[tokenAddress][msg.sender];\n        walletTokenBalance[tokenAddress][msg.sender] = previousBalance.sub(amount);\n\n        // Remove depositId from withdrawal addresses mapping\n        uint256 i;\n        uint256 j;\n        uint256 byWLength = depositsByWithdrawalAddress[withdrawalAddress].length;\n        uint256[] memory newDepositsByWithdrawal = new uint256[](byWLength - 1);\n\n        for (j = 0; j < byWLength; j++) {\n            if (depositsByWithdrawalAddress[withdrawalAddress][j] == _id) {\n                for (i = j; i < byWLength - 1; i++) {\n                    newDepositsByWithdrawal[i] = depositsByWithdrawalAddress[withdrawalAddress][i + 1];\n                }\n                break;\n            } else {\n                newDepositsByWithdrawal[j] = depositsByWithdrawalAddress[withdrawalAddress][j];\n            }\n        }\n        depositsByWithdrawalAddress[withdrawalAddress] = newDepositsByWithdrawal;\n\n        // Remove depositId from tokens mapping\n        uint256 byTLength = depositsByTokenAddress[tokenAddress].length;\n        uint256[] memory newDepositsByToken = new uint256[](byTLength - 1);\n        for (j = 0; j < byTLength; j++) {\n            if (depositsByTokenAddress[tokenAddress][j] == _id) {\n                for (i = j; i < byTLength - 1; i++) {\n                    newDepositsByToken[i] = depositsByTokenAddress[tokenAddress][i + 1];\n                }\n                break;\n            } else {\n                newDepositsByToken[j] = depositsByTokenAddress[tokenAddress][j];\n            }\n        }\n        depositsByTokenAddress[tokenAddress] = newDepositsByToken;\n\n        emit TokensWithdrawn(tokenAddress, withdrawalAddress, amount);\n    }\n\n    function getTotalTokenBalance(address _tokenAddress) view public returns (uint256)\n    {\n        return IBEP20(_tokenAddress).balanceOf(address(this));\n    }\n\n    function getTokenBalanceByAddress(address _tokenAddress, address _walletAddress) view public returns (uint256)\n    {\n        return walletTokenBalance[_tokenAddress][_walletAddress];\n    }\n\n    function getAllDepositIds() view public returns (uint256[] memory)\n    {\n        return allDepositIds;\n    }\n\n    function getDepositDetails(uint256 _id) view public returns (address, address, uint256, uint256, bool)\n    {\n        return (lockedToken[_id].tokenAddress, lockedToken[_id].withdrawalAddress, lockedToken[_id].tokenAmount,\n        lockedToken[_id].unlockTime, lockedToken[_id].withdrawn);\n    }\n\n    function getDepositsByWithdrawalAddress(address _withdrawalAddress) view public returns (uint256[] memory)\n    {\n        return depositsByWithdrawalAddress[_withdrawalAddress];\n    }\n\n    function getDepositsByTokenAddress(address _tokenAddress) view public returns (uint256[] memory)\n    {\n        return depositsByTokenAddress[_tokenAddress];\n    }\n\n    function setBnbFee(uint256 fee) external onlyOwner {\n        require(fee > 0, 'Fee is too small');\n        bnbFee = fee;\n    }\n\n    function setLpFee(uint256 percent) external onlyOwner {\n        require(percent > 0, 'Percent is too small');\n        lpFeePercent = percent;\n    }\n\n    function withdrawFees(address payable withdrawalAddress) external onlyOwner {\n        if (remainingBnbFees > 0) {\n            withdrawalAddress.transfer(remainingBnbFees);\n            remainingBnbFees = 0;\n        }\n\n        for (uint i = 1; i <= tokenAddressesWithFees.length; i++) {\n            address tokenAddress = tokenAddressesWithFees[tokenAddressesWithFees.length - i];\n            uint256 amount = tokensFees[tokenAddress];\n            if (amount > 0) {\n                IBEP20(tokenAddress).transfer(withdrawalAddress, amount);\n            }\n            delete tokensFees[tokenAddress];\n            tokenAddressesWithFees.pop();\n        }\n\n        tokenAddressesWithFees = new address[](0);\n    }\n}",
  "sourcePath": "/var/www/Practice/solidity/token-locker/contracts/TrueLocker.sol",
  "compiler": {
    "name": "solc",
    "version": "0.7.6+commit.7338295f.Emscripten.clang"
  },
  "schemaVersion": "3.4.1",
  "updatedAt": "2021-09-16T16:42:07.116Z",
  "networkType": "ethereum",
  "devdoc": {
    "kind": "dev",
    "methods": {
      "owner()": {
        "details": "Returns the address of the current owner."
      },
      "renounceOwnership()": {
        "details": "Leaves the contract without owner. It will not be possible to call `onlyOwner` functions anymore. Can only be called by the current owner. NOTE: Renouncing ownership will leave the contract without an owner, thereby removing any functionality that is only available to the owner."
      },
      "transferOwnership(address)": {
        "details": "Transfers ownership of the contract to a new account (`newOwner`). Can only be called by the current owner."
      }
    },
    "version": 1
  },
  "userdoc": {
    "kind": "user",
    "methods": {},
    "version": 1
  }
}